{
  "_format": "hh-sol-artifact-1",
  "contractName": "Jackpot",
  "sourceName": "contracts/Jackpot.sol",
  "abi": [
    {
      "inputs": [
        {
          "internalType": "address",
          "name": "_platformAddress",
          "type": "address"
        }
      ],
      "stateMutability": "nonpayable",
      "type": "constructor"
    },
    {
      "inputs": [],
      "name": "deposit",
      "outputs": [],
      "stateMutability": "payable",
      "type": "function"
    },
    {
      "inputs": [],
      "name": "drawWinner",
      "outputs": [],
      "stateMutability": "nonpayable",
      "type": "function"
    },
    {
      "inputs": [
        {
          "internalType": "uint256",
          "name": "",
          "type": "uint256"
        }
      ],
      "name": "entries",
      "outputs": [
        {
          "internalType": "address",
          "name": "user",
          "type": "address"
        },
        {
          "internalType": "uint256",
          "name": "amount",
          "type": "uint256"
        }
      ],
      "stateMutability": "view",
      "type": "function"
    },
    {
      "inputs": [],
      "name": "getEntries",
      "outputs": [
        {
          "components": [
            {
              "internalType": "address",
              "name": "user",
              "type": "address"
            },
            {
              "internalType": "uint256",
              "name": "amount",
              "type": "uint256"
            }
          ],
          "internalType": "struct Jackpot.Entry[]",
          "name": "",
          "type": "tuple[]"
        }
      ],
      "stateMutability": "view",
      "type": "function"
    },
    {
      "inputs": [],
      "name": "getPool",
      "outputs": [
        {
          "internalType": "uint256",
          "name": "",
          "type": "uint256"
        }
      ],
      "stateMutability": "view",
      "type": "function"
    },
    {
      "inputs": [],
      "name": "lastDrawTime",
      "outputs": [
        {
          "internalType": "uint256",
          "name": "",
          "type": "uint256"
        }
      ],
      "stateMutability": "view",
      "type": "function"
    },
    {
      "inputs": [],
      "name": "owner",
      "outputs": [
        {
          "internalType": "address",
          "name": "",
          "type": "address"
        }
      ],
      "stateMutability": "view",
      "type": "function"
    },
    {
      "inputs": [],
      "name": "platformAddress",
      "outputs": [
        {
          "internalType": "address",
          "name": "",
          "type": "address"
        }
      ],
      "stateMutability": "view",
      "type": "function"
    },
    {
      "inputs": [],
      "name": "totalPool",
      "outputs": [
        {
          "internalType": "uint256",
          "name": "",
          "type": "uint256"
        }
      ],
      "stateMutability": "view",
      "type": "function"
    }
  ],
  "bytecode": "0x608060405234801561001057600080fd5b50604051610eb9380380610eb983398181016040528101906100329190610124565b33600360006101000a81548173ffffffffffffffffffffffffffffffffffffffff021916908373ffffffffffffffffffffffffffffffffffffffff16021790555080600460006101000a81548173ffffffffffffffffffffffffffffffffffffffff021916908373ffffffffffffffffffffffffffffffffffffffff1602179055504260028190555050610151565b600080fd5b600073ffffffffffffffffffffffffffffffffffffffff82169050919050565b60006100f1826100c6565b9050919050565b610101816100e6565b811461010c57600080fd5b50565b60008151905061011e816100f8565b92915050565b60006020828403121561013a576101396100c1565b5b60006101488482850161010f565b91505092915050565b610d59806101606000396000f3fe6080604052600436106100865760003560e01c8063b2185bb111610059578063b2185bb114610137578063b30906d41461014e578063d0e30db01461018c578063dbe55e5614610196578063ecfb49a3146101c157610086565b8063026b1d5f1461008b57806317be85c3146100b65780635cbbd635146100e15780638da5cb5b1461010c575b600080fd5b34801561009757600080fd5b506100a06101ec565b6040516100ad9190610773565b60405180910390f35b3480156100c257600080fd5b506100cb6101f6565b6040516100d891906108bc565b60405180910390f35b3480156100ed57600080fd5b506100f66102b5565b6040516101039190610773565b60405180910390f35b34801561011857600080fd5b506101216102bb565b60405161012e91906108ed565b60405180910390f35b34801561014357600080fd5b5061014c6102e1565b005b34801561015a57600080fd5b5061017560048036038101906101709190610939565b610569565b604051610183929190610966565b60405180910390f35b6101946105bd565b005b3480156101a257600080fd5b506101ab6106c4565b6040516101b891906108ed565b60405180910390f35b3480156101cd57600080fd5b506101d66106ea565b6040516101e39190610773565b60405180910390f35b6000600154905090565b60606000805480602002602001604051908101604052809291908181526020016000905b828210156102ac57838290600052602060002090600202016040518060400160405290816000820160009054906101000a900473ffffffffffffffffffffffffffffffffffffffff1673ffffffffffffffffffffffffffffffffffffffff1673ffffffffffffffffffffffffffffffffffffffff1681526020016001820154815250508152602001906001019061021a565b50505050905090565b60025481565b600360009054906101000a900473ffffffffffffffffffffffffffffffffffffffff1681565b610e106002546102f191906109be565b421015610333576040517f08c379a000000000000000000000000000000000000000000000000000000000815260040161032a90610a4f565b60405180910390fd5b600080805490501161037a576040517f08c379a000000000000000000000000000000000000000000000000000000000815260040161037190610abb565b60405180910390fd5b600060015442443360405160200161039493929190610b44565b6040516020818303038152906040528051906020012060001c6103b79190610bb0565b905060008080600090505b60008054905081101561046457600081815481106103e3576103e2610be1565b5b9060005260206000209060020201600101548361040091906109be565b925082841015610457576000818154811061041e5761041d610be1565b5b906000526020600020906002020160000160009054906101000a900473ffffffffffffffffffffffffffffffffffffffff169150610464565b80806001019150506103c2565b506000606460056001546104789190610c10565b6104829190610c52565b90506000816001546104949190610c83565b9050600460009054906101000a900473ffffffffffffffffffffffffffffffffffffffff1673ffffffffffffffffffffffffffffffffffffffff166108fc839081150290604051600060405180830381858888f193505050501580156104fe573d6000803e3d6000fd5b508273ffffffffffffffffffffffffffffffffffffffff166108fc829081150290604051600060405180830381858888f19350505050158015610545573d6000803e3d6000fd5b5060008061055391906106f0565b6000600181905550426002819055505050505050565b6000818154811061057957600080fd5b90600052602060002090600202016000915090508060000160009054906101000a900473ffffffffffffffffffffffffffffffffffffffff16908060010154905082565b60003411610600576040517f08c379a00000000000000000000000000000000000000000000000000000000081526004016105f790610d03565b60405180910390fd5b600060405180604001604052803373ffffffffffffffffffffffffffffffffffffffff16815260200134815250908060018154018082558091505060019003906000526020600020906002020160009091909190915060008201518160000160006101000a81548173ffffffffffffffffffffffffffffffffffffffff021916908373ffffffffffffffffffffffffffffffffffffffff16021790555060208201518160010155505034600160008282546106bb91906109be565b92505081905550565b600460009054906101000a900473ffffffffffffffffffffffffffffffffffffffff1681565b60015481565b50805460008255600202906000526020600020908101906107119190610714565b50565b5b8082111561075657600080820160006101000a81549073ffffffffffffffffffffffffffffffffffffffff0219169055600182016000905550600201610715565b5090565b6000819050919050565b61076d8161075a565b82525050565b60006020820190506107886000830184610764565b92915050565b600081519050919050565b600082825260208201905092915050565b6000819050602082019050919050565b600073ffffffffffffffffffffffffffffffffffffffff82169050919050565b60006107e5826107ba565b9050919050565b6107f5816107da565b82525050565b6108048161075a565b82525050565b60408201600082015161082060008501826107ec565b50602082015161083360208501826107fb565b50505050565b6000610845838361080a565b60408301905092915050565b6000602082019050919050565b60006108698261078e565b6108738185610799565b935061087e836107aa565b8060005b838110156108af5781516108968882610839565b97506108a183610851565b925050600181019050610882565b5085935050505092915050565b600060208201905081810360008301526108d6818461085e565b905092915050565b6108e7816107da565b82525050565b600060208201905061090260008301846108de565b92915050565b600080fd5b6109168161075a565b811461092157600080fd5b50565b6000813590506109338161090d565b92915050565b60006020828403121561094f5761094e610908565b5b600061095d84828501610924565b91505092915050565b600060408201905061097b60008301856108de565b6109886020830184610764565b9392505050565b7f4e487b7100000000000000000000000000000000000000000000000000000000600052601160045260246000fd5b60006109c98261075a565b91506109d48361075a565b92508282019050808211156109ec576109eb61098f565b5b92915050565b600082825260208201905092915050565b7f546f6f206561726c790000000000000000000000000000000000000000000000600082015250565b6000610a396009836109f2565b9150610a4482610a03565b602082019050919050565b60006020820190508181036000830152610a6881610a2c565b9050919050565b7f4e6f20656e747269657300000000000000000000000000000000000000000000600082015250565b6000610aa5600a836109f2565b9150610ab082610a6f565b602082019050919050565b60006020820190508181036000830152610ad481610a98565b9050919050565b6000819050919050565b610af6610af18261075a565b610adb565b82525050565b60008160601b9050919050565b6000610b1482610afc565b9050919050565b6000610b2682610b09565b9050919050565b610b3e610b39826107da565b610b1b565b82525050565b6000610b508286610ae5565b602082019150610b608285610ae5565b602082019150610b708284610b2d565b601482019150819050949350505050565b7f4e487b7100000000000000000000000000000000000000000000000000000000600052601260045260246000fd5b6000610bbb8261075a565b9150610bc68361075a565b925082610bd657610bd5610b81565b5b828206905092915050565b7f4e487b7100000000000000000000000000000000000000000000000000000000600052603260045260246000fd5b6000610c1b8261075a565b9150610c268361075a565b9250828202610c348161075a565b91508282048414831517610c4b57610c4a61098f565b5b5092915050565b6000610c5d8261075a565b9150610c688361075a565b925082610c7857610c77610b81565b5b828204905092915050565b6000610c8e8261075a565b9150610c998361075a565b9250828203905081811115610cb157610cb061098f565b5b92915050565b7f4d7573742073656e642045544800000000000000000000000000000000000000600082015250565b6000610ced600d836109f2565b9150610cf882610cb7565b602082019050919050565b60006020820190508181036000830152610d1c81610ce0565b905091905056fea2646970667358221220255c4d2e26834e898f5026a5474f80999c295f9a4821d4f49ddaa36298ff02b164736f6c634300081c0033",
  "linkReferences": {},
  "deployedLinkReferences": {}
}